:100000000C942A001895000018950000189500001F
:10001000189500001895000018950000189500002C
:10002000189500001895000018950000189500001C
:10003000189500001895000018950000189500000C
:1000400018950000189500001895000018950000FC
:10005000189500008FE58DBFC8E3E0E24E2E84E0E6
:100060008EBFD4E0F4E05F2EA89584B7082E877F7A
:1000700084BF88E1992781BD91BDEEEFF3E0A0E652
:10008000B0E088278D933197E9F7662474B37F63D6
:1000900074BB0E94C00883E886B980EC87B980E011
:1000A0008A9380E08A9380E08A93E6E3FDE08827E4
:1000B000809360000E942709E3E0F0E00E94A2081C
:1000C000379A07B1007E026007B90E947D09A9E650
:1000D000B0E08D939C93A9E6B0E00D911C9144E0B3
:1000E00050E00E948808A9E6B0E04D935C93A8E632
:1000F000B0E04D915527A9E6B0E00D911C91041791
:10010000150711F00C9486000C9461008091690031
:100110008093680080E08A9380E08A9380E08A93ED
:10012000E4EAFCE08827809360000E94270988E0C9
:1001300080936B0000916B000E3618F011F00C9458
:10014000B70080916B008A9388E08A9380E08A935D
:10015000E4ECF0E18827809360000E942709ABE679
:10016000B0E08C918F5F8C9310F40C949A00009106
:10017000690048E0040FA7E6B0E00C9388E08093A4
:100180006B004091670000916B00041718F011F0AC
:100190000C94E00080916B008A9388E08A9380E061
:1001A0008A93EAEFFFE08827809360000E94270986
:1001B000ABE6B0E08C918F5F8C9310F40C94C1008F
:1001C000E9E6F0E0A3E6B0E00E949D09A3E6B0E016
:1001D0000E94600AA1E6B0E08C93009161000130BA
:1001E00011F00C94C701A3E6B0E00E94F209A2E668
:1001F000B0E00C9300916200003011F00C940F01FC
:1002000080E08A9380E28A9380E08A93ECEFF6E0C4
:100210008827809360000E9427090C94B801013060
:1002200011F00C94220180E08A9380E28A9380E0AE
:100230008A93E8E1F7E08827809360000E9427090D
:100240000C94B801023011F00C94350180E08A93CF
:1002500080E28A9380E08A93E6E5F7E0882780933E
:1002600060000E9427090C94B801033011F00C942F
:10027000480180E08A9380E28A9380E08A93E2EFEB
:10028000F7E08827809360000E9427090C94B8014A
:10029000043011F00C945B0180E08A9380E28A9331
:1002A00080E08A93ECE8F8E08827809360000E9461
:1002B00027090C94B801053011F00C946E0180E010
:1002C0008A9380E28A9380E08A93E2E4F9E08827C7
:1002D000809360000E9427090C94B801063011F049
:1002E0000C94810180E08A9380E28A9380E08A9373
:1002F000E2E0FAE08827809360000E9427090C94CE
:10030000B801073011F00C94940180E08A9380E2E8
:100310008A9380E08A93ECE8FAE088278093600073
:100320000E9427090C94B801083011F00C94A70121
:1003300080E08A9380E28A9380E08A93E0E4FBE0A5
:100340008827809360000E9427090C94B801093027
:1003500011F00C94B80180E08A9380E28A9380E0E7
:100360008A93E4EFFBE08827809360000E942709CE
:1003700088E18A9380E28A9380E08A93E2E0F0E168
:100380008827809360000E9427090C947403023030
:1003900011F00C94740381E0E3E6F0E001E00A93CD
:1003A000AEE6B0E00E94240AAEE6B0E00E94F20998
:1003B000A2E6B0E00C9300916200003011F00C94C2
:1003C000F00180E08A9380E28A9380E08A93ECEFE8
:1003D000F6E08827809360000E9427090C94990218
:1003E000013011F00C94030280E08A9380E28A933A
:1003F00080E08A93E8E1F7E08827809360000E941C
:1004000027090C949902023011F00C94160280E036
:100410008A9380E28A9380E08A93E6E5F7E0882772
:10042000809360000E9427090C949902033011F018
:100430000C94290280E08A9380E28A9380E08A9378
:10044000E2EFF7E08827809360000E9427090C9470
:100450009902043011F00C943C0280E08A9380E20F
:100460008A9380E08A93ECE8F8E088278093600024
:100470000E9427090C949902053011F00C944F0248
:1004800080E08A9380E28A9380E08A93E2E4F9E054
:100490008827809360000E9427090C9499020630F7
:1004A00011F00C94620280E08A9380E28A9380E0EB
:1004B0008A93E2E0FAE08827809360000E9427098F
:1004C0000C949902073011F00C94750280E08A9325
:1004D00080E28A9380E08A93ECE8FAE088278093B0
:1004E00060000E9427090C949902083011F00C94C6
:1004F000880280E08A9380E28A9380E08A93E0E435
:10050000FBE08827809360000E9427090C949902E1
:10051000093011F00C94990280E08A9380E28A936A
:1005200080E08A93E4EFFBE08827809360000E94DC
:10053000270982E0E3E6F0E001E00A93ACE6B0E0F0
:100540000E94240AACE6B0E00E94F209A2E6B0E004
:100550000C9300916200003011F00C94BE0288E10F
:100560008A9380E28A9380E08A93ECEFF6E0882712
:10057000809360000E9427090C946703013011F0FA
:100580000C94D10288E18A9380E28A9380E08A9376
:10059000E8E1F7E08827809360000E9427090C9427
:1005A0006703023011F00C94E40288E18A9380E240
:1005B0008A9380E08A93E6E5F7E0882780936000DD
:1005C0000E9427090C946703033011F00C94F70282
:1005D00088E18A9380E28A9380E08A93E2EFF7E0F1
:1005E0008827809360000E9427090C9467030430D9
:1005F00011F00C940A0388E18A9380E28A9380E0E8
:100600008A93ECE8F8E08827809360000E9427092D
:100610000C946703053011F00C941D0388E18A9354
:1006200080E28A9380E08A93E2E4F9E0882780936D
:1006300060000E9427090C946703063011F00C94A7
:10064000300388E18A9380E28A9380E08A93E2E033
:10065000FAE08827809360000E9427090C946703C2
:10066000073011F00C94430388E18A9380E28A9367
:1006700080E08A93ECE8FAE08827809360000E948B
:1006800027090C946703083011F00C94560388E195
:100690008A9380E28A9380E08A93E0E4FBE08827F3
:1006A000809360000E9427090C946703093011F0C1
:1006B0000C94670388E18A9380E28A9380E08A93AE
:1006C000E4EFFBE08827809360000E94270980E325
:1006D0008A9380E28A9380E08A93E2E0F0E18827BF
:1006E000809360000E94270984E690E00E94B10890
:1006F0000C9461000C946000F894FFCF281000AABD
:10070000250007000F201F303F383F383F381F308B
:100710000F200700AA180000281000AA05000E00EC
:100720000F001F001F003F203F203F203F303F3081
:100730001F301F301F300F300F300F300F300F3091
:100740000730073007300730073007300730072001
:10075000032000AA1500301800AA0B000C00380076
:100760000E0138001F0138001F2338003FAA013F47
:1007700038003FAA013F38003FAA013F38003FAA96
:10078000013F38003FAA013F30001F3F20000F3FCC
:1007900020000F3E00AA01000F3C00AA0100073C08
:1007A00000AA0100073C00AA0100033C00AA0100C6
:1007B000033C00AA0100033C00AA0100033C00AA7C
:1007C0000100033C00AA0100033C00AA0100033C15
:1007D00000AA0100013C00AA0100013800AA0100A2
:1007E000013800AA0100013800AA0100013000AA66
:1007F0004900281800AA0B000E00AA02000E0727C5
:10080000201F0727201F2FAA012F203FAA023F20C9
:100810003FAA023F203FAA023F003FAA023F003FFB
:10082000AA023F001F3F3E001F3F3C000F3C00AAB2
:1008300001000F3800AA0100073C00AA0100073C94
:1008400000AA0100073C00AA0100073C00AA010021
:10085000073C00AA0100033C00AA0100033C00AAD7
:100860000100033C00AA0100033800AA010003387C
:1008700000AA0100033800AA0100033800AA010001
:10088000033000AA0100013000AA2900302000AA8C
:100890000E000C073800AA01000E1F3C00AA010040
:1008A0001F3F3E00AA01001F3F3E00AA01003F3C3F
:1008B00000AA02003F3800AA02003F3C0F00AA0134
:1008C000003FAA023F00AA01003FAA013F3E00AA42
:1008D00001001F3F3E00AA01000F3F3C00AA01009B
:1008E0000F3F3800AA01000F3F2000AA010007387F
:1008F00000AA0200073C00AA0200033C00AA020072
:10090000033C00AA0200033C00AA0200033C00AA28
:100910000200033C00AA0200033C00AA0200033CC0
:1009200000AA0200013C00AA0200013800AA02004D
:10093000013800AA0200013800AA0200013000AA12
:100940005C00282000AA0F001C00AA03001E00AAB9
:1009500003003F00AA03003F00AA0200013F20005D
:10096000AA0100013F3000AA0100033F3000AA01A4
:1009700000013F3800AA0100013F3800AA0100032E
:100980003F3C00AA0100033F3C00AA010007273EAC
:1009900000AA010007233E00AA01000F233E00AA7F
:1009A00001000F013F00AA01001F003F00AA010043
:1009B0001E003F00AA01001E0E1F00AA01001EAA71
:1009C000011E1F00AA01003F1E1F00AA01003FAA2E
:1009D000023F00AA01003FAA023F00AA01003FAA6D
:1009E000023F00AA01001F3F3E00AA01001F3F3E38
:1009F00000AA01000F3F3C00AA010007373800AAF7
:100A00003300301800AA0C003F00AA0100013F206B
:100A100000033F3000073F30000F2338001F003035
:100A2000001E00AA02003E001E003F013E003F27BC
:100A30003E003FAA013F3E003FAA013F3C001F3F4E
:100A40003C000F3F3C00033F3000073F00AA01007D
:100A50000F3E00AA01000F3800AA01001F3000AAB3
:100A600001001F3000AA01003F2000AA01003F0042
:100A7000AA02003E00AA02003C00AA02003C00AA12
:100A800002003800AA02003000AA4A00302000AA62
:100A90000E001C000E00AA01001E001E00AA01008C
:100AA0001E001E00AA01003F003E00AA01003F01F7
:100AB0003E00AA01003F213F00AA01003F233F0062
:100AC000AA01003F333F00AA01003F373F00AA01BF
:100AD000001F373E00AA01001F3F3C00AA01000F83
:100AE0003F3800AA01000F3F3800AA0100073F303D
:100AF00000AA0100073F3000AA0100033F2000AA1E
:100B00000100033F2000AA0100033F00AA020001E8
:100B10003F00AA0200013F00AA0200013E00AA0213
:100B200000013E00AA03003E00AA03003E00AA0303
:100B3000003C00AA03003C00AA03001C00AA5C00C1
:100B4000302000AA0F001E00AA03001E00AA030006
:100B50001E00AA03001E00AA03003F00AA03003FD4
:100B600000AA03003F00AA03003F00AA0200013FC1
:100B70002000AA0100013F2000AA0100013F20003F
:100B8000AA0100033F3000AA0100033F3000AA0180
:100B900000073F3800AA0100073F3800AA01000FF4
:100BA0003F3C00AA01001F3F3C00AA01001F3F3E3E
:100BB00000AA01003F373E00AA01003F333F00AAD0
:100BC00001003F233F00AA01003F233F00AA01008C
:100BD0003F013E00AA01003F013E00AA01003E0085
:100BE0003E00AA01003C001C00AA01001C001C00E1
:100BF000AA5B0000281800AA0B00033800AA010015
:100C00000F3E00AA01000F3E00AA01001F3E00AAED
:100C100001001F3F00AA01003FAA013F00AA0100F6
:100C20003C3F00AA01003C3F00AA01003FAA013F4F
:100C300000AA01003FAA013F00AA01003FAA013F0C
:100C400000AA01003FAA013F00AA01003FAA013FFC
:100C500000AA01001F3F00AA02003F00AA02003FB5
:100C600000AA02003F00AA02003F00AA02003F20A3
:100C700000AA01003F3000AA01003F3000AA010095
:100C80001F3000AA01001F2000AA01001F2000AA97
:100C900001000F2000AA0100072000AA0100032084
:100CA00000AA2800408000AA6800033FAA123F382B
:100CB0000200AA1200080200AA1200080200AA12EA
:100CC00000080200AA1200080200AA12000802008E
:100CD000AA1200080200AA1200080200AA120008C4
:100CE0000200AA1200080200AA1200080200AA12BA
:100CF00000080200AA1200080200AA12000802005E
:100D0000AA1200080200AA1200080200AA12000893
:100D10000200AA1200080200AA1200080200AA1289
:100D20000008033FAA123F3800AAFF00AAFF00AA4A
:100D3000FF00AA200000408000AA8A000800AA1331
:100D4000001800AA1200013800AA1200033800AAF5
:100D50001200073800AA12001F3800AA0C00180061
:100D6000AA04001F3800AA0C003C00AA04001F3887
:100D700000AA0B00013E00AA04001F3800AA0400CC
:100D80003000AA0500013F00AA04001F3800AA0491
:100D9000003800AA0500013E00AA04001F3800AA7E
:100DA0000300013E00AA06003C00AA04001F380010
:100DB000AA0300013F00AA01000F3800AA02001890
:100DC00000AA04001F3800AA0300033F20001F3FB1
:100DD0003000AA07001F3800AA0300033F20003F8D
:100DE000AA033F00AA06001F3800AA0300073F30ED
:100DF000013FAA033F00AA06001F38000F2000078A
:100E00003F38013FAA023F3E00AA0500080F380004
:100E10003F3800073F38033FAA023F3E00AA0500C3
:100E20001C0F38013F3C00033F3C033FAA023F3EFA
:100E300000AA05003C0F38013F3C00AA01003F3CDE
:100E4000073FAA023F3C000C000C01213C0F380375
:100E50003F3E00AA01000F3E073FAA023F3C001C94
:100E6000000E01203C0F38033E1E0100073E072004
:100E7000073F3C001C000E03303E0F38033E0F03BB
:100E800020033E07003F3920003E001E03301E0FA6
:100E900038033C0F0320013E00033F0130013F00B7
:100EA0001F03301E0F3C073E070330003E000F3C7F
:100EB000013FAA053F383E0F3FAA013F3E07AA0166
:100EC0000738003E001F38013FAA063F3C0F3FAAEB
:100ED000013F3E07273FAA013F3E003F30013FAAA6
:100EE000063F3C0F3FAA023F07273FAA013F3E01B2
:100EF0003F20013FAA063F3C0F3FAA023F07273F82
:100F0000AA013F3E033F20013FAA063F3C0F3FAAF4
:100F1000033F273FAA013F3C073F00013FAA063F8E
:100F20003C0F3FAA033F073FAA013F3C073F000198
:100F30003FAA063F38073FAA033F033FAA013F3CB1
:100F40000F3F00183FAA063F38073FAA033F033F61
:100F5000AA013F380F3F003C1F3F3B3F333E3F302D
:100F6000033F3E1F3E013FAA013F300F3F013E0FAE
:100F70003F333F333E1F20013F3C0F3C003FAA015F
:100F80003F200F3F013F073F003F20380F00AA01DD
:100F9000001F380730000F3C000F3F003E00AA1032
:100FA000000F3F201C00AA1000073F200800AA10D5
:100FB00000073F3000AA1100033F3C00AA110003C4
:100FC0003FAA013F2000AA1000013FAA023F3C00B7
:100FD000AA10003FAA023F3E00AA10000F3FAA013C
:100FE0003F3E00AA1000033FAA013F3800AA1100AB
:100FF0000F3F00AAFF00AA0D0000100820AA0E2033
:101000000000202800AA11000700AA0400183000E0
:10101000073C0010AA0110003FAA013F0020080170
:101020003FAA013F20AA0120080338073020080703
:1010300020013810AA01100F00AA01003C18300E40
:1010400000AA01001C07001E00AA01001C00AA0142
:10105000001C00AA04001C00AA04001C00AA040032
:101060001C00AA04001C00AA04001C00AA04001C06
:1010700000AA04001C00AA04001C00AA04001E0010
:10108000AA01001C00AA01000E00AA01001C00AA6F
:1010900001000F00AA01003C00AA0100072001384E
:1010A00000AA01000338073800AA0100013FAA0185
:1010B0003F3000AA02003FAA013F00AA0300073CFC
:1010C00000AA1200100800AA0F0000FC10D008951A
:1010D00003D01ED001F8F9CF0024E89457FF02C0D6
:1010E00009D0689400F80BD010F80124089502D0BC
:1010F00009D00895509540954F5F5F4F0895E8944B
:1011000017FF0895009510950F5F1F4F689408957D
:10111000352F242FE894452B11F468940895512F0E
:10112000402F0027112780E1440F551F001F111F7A
:10113000021B130B416018F4020F131F4E7F8A9598
:1011400099F7089588EE93E00CD03197D9F7089578
:101150003197F1F70895689462F80895E89462F879
:101160000895EF93FF93EE27E82BE92B31F0EAEF98
:10117000F0E03197F1F70197D1F7FF91EF910895E2
:10118000AD9AAC98AA9AAB9A84E699270E94B108C6
:10119000AC9A88272DD083E02BD082E434D085E12F
:1011A00027D0882725D083E42ED0882721D020D0AF
:1011B00080E429D085E11CD088271AD081E423D08F
:1011C00080E821D08FE91FD00895A99A992791BB73
:1011D0009FEF92BBAB98A89800000000000090B36E
:1011E000AB9AA89A93709330A9F79FEF91BB08959B
:1011F000ECDFA99882BBAA98A89800000000000024
:10120000AA9AA89A0895E1DFA99AF4CF842FF0DF73
:10121000852FEEDF84E2F7CF40E053E0F7DFE0E830
:10122000F5E08827E5DFE4DF80ECEDDF3197C9F7F3
:10123000089544275527EADFE0EBF0E0F2CFBB202A
:1012400021F0AA27BB270C943A0A0C948609112492
:1012500022243324B9900E941F090A920E941F0978
:10126000002D46E00E94500A0A930A930C8146E042
:101270000E94500A0C830B8145E10E94440A8C8134
:10128000480F8827581F40505D4FC0DF131479F472
:101290000E941F09202C802D8A3A39F00E941F09D4
:1012A000802D8A3A39F031970DC031960BC01A94CF
:1012B00069F308C00E941F09802D882311F432971A
:1012C00001C0102C882794DF822D92DF80EC9BDFF9
:1012D00089818A958983D1F6888189838A818A95D3
:1012E0008A8311F4259608958B8183958B83C3CFD0
:1012F00001911191219130810895369A3699FECF4E
:10130000369A3699FECF84B195B10895C895319635
:1013100000200895040F151F261F371F0895000F82
:10132000111F221F331F08950095109520953095A9
:101330000F5F1F4F2F4F3F4F0895019110810FC036
:101340000E9478090EC00E94780910C00191108196
:1013500017FF05C03FEF2FEF04C0008111272227A0
:10136000332737FF03C0E0DF8DE28D93CF92DF920A
:10137000EF92AA24BB24CC24DD24EE2440E2EAE050
:10138000FF2755E093E38081890F87FD9F7083FDE0
:10139000907F891B81935A95A9F7C1DFAA1CBB1CBA
:1013A000CC1CDD1CEE1C4A9551F7E894EFE0FF27BA
:1013B00082910BD0EB30E0F71EF068948A2D09D0B3
:1013C0004D93EF90DF90CF900895982F829501D0A4
:1013D000892F8F70805D26F0803309F4089568941A
:1013E0008D93089500271127222733271DD08A3394
:1013F00028F4803318F005D015D0F9CF0EF494CF2F
:10140000089580538F93402F512F622F732F87DFC2
:1014100086DF80DF84DF8F919927080F191F291F2E
:10142000391F08958D910895E894FCDF8032E9F327
:101430008B32D9F38930C9F38D3211F46894F2CF2D
:10144000089588278D93089509919191992359F0D2
:101450008A95D9F73197002331F081918D930A95C0
:101460008823C9F70895EDCFE199FECFEEBBFFBB0E
:101470003196089591E001C092E0F6DFE09A8DB3D5
:101480008D939A95D1F70895FF935527F8E04695E7
:1014900008F4500F57954795FA95D1F7FF910895A5
:1014A000FF93881BF9E0001FFA9511F4FF9108954E
:1014B000881F841B18F4840F8894F5CF0894F3CF09
:0C14C0008FEF83959D919923E1F708952B
:00000001FF
